{
  "contractName": "TokenAirdrop",
  "abi": [
    {
      "constant": true,
      "inputs": [],
      "name": "someFunction",
      "outputs": [
        {
          "name": "",
          "type": "uint256"
        }
      ],
      "payable": false,
      "stateMutability": "view",
      "type": "function"
    }
  ],
  "bytecode": "0x608060405234801561001057600080fd5b5061016d806100206000396000f3fe608060405234801561001057600080fd5b506004361061003c5760003560e01c80636d4ce63c14610041575b600080fd5b61007c6004803603604081101561005657600080fd5b810190808035906020019092919050505061005c565b005b61008561007736600461003c565b61008e565b005b61008c61009336600461003c565b610095565b005b6100a26100aa3660046100a2565b6100a86100b23660046100a2565b6100b1565b6100c3565b60405161008b91906100f1565b60405180910390f35b8060008190555050565b60008054905090565b6000819050919050565b6100e4600480360360208110156100d657600080fd5b810190808035906020019092919050505061012c565b600080546001019055565b6000549056fea264697066735822122069fffa3f47728c0325a4b69f73e8c8602d9b33d13a19c67d5ad61e69f89752c64736f6c63430007060033",
  "deployedBytecode": "0x608060405234801561001057600080fd5b506004361061003c576000357c0100000000000000000000000000000000000000000000000000000000900480636d4ce63c14610041575b600080fd5b61007c6004803603604081101561005657600080fd5b810190808035906020019092919050505061005c565b005b61008561007736600461003c565b61008e565b005b61008c61009336600461003c565b610095565b005b6100a26100aa3660046100a2565b6100a86100b23660046100a2565b6100b1565b6100c3565b60405161008b91906100f1565b60405180910390f35b8060008190555050565b60008054905090565b6000819050919050565b6100e4600480360360208110156100d657600080fd5b810190808035906020019092919050505061012c565b600080546001019055565b6000549056fea264697066735822122069fffa3f47728c0325a4b69f73e8c8602d9b33d13a19c67d5ad61e69f89752c64736f6c63430007060033"
}